:020000040800F2
:1000000090060020650E0008510E0008530E0008EF
:10001000550E0008570E0008590E00080000000099
:100020000000000000000000000000005B0E00085F
:100030005D0E0008000000005F0E0008610E000861
:10004000A50E0008A90E0008AD0E0008B10E0008AC
:10005000B50E0008B90E0008BD0E0008C10E00085C
:10006000C50E0008C90E0008CD0E0008D10E00080C
:10007000D50E0008D90E0008DD0E0008E10E0008BC
:10008000E50E0008E90E0008ED0E0008F10E00086C
:10009000F50E0008F90E0008FD0E0008010F00081B
:1000A000050F0008090F00080D0F0008110F0008C8
:1000B000150F0008F90100081D0F0008210F0008A6
:1000C000250F0008290F00082D0F0008310F000828
:1000D000350F0008390F00083D0F0008410F0008D8
:1000E000450F0008490F00084D0F000810B500F03B
:1000F0001AFA00F05CFA00F0BDFA00F0CEF84FF406
:100100008071DFF8500500F072FB1021DFF8440524
:1001100000F06AFB0121282000F0FCF803212020D8
:1001200000F0F8F80121382000F0F4F8002000F089
:1001300090F900F07FF91021DFF81C0500F054FB66
:100140000221DFF8140500F04FFB0020DFF80C154A
:1001500008806420DFF8081508804FF40051DFF8AC
:10016000F80400F034FB0028F7D14FF48051DFF899
:10017000E40400F03CFB0024E4B2082C2BDA00F08D
:100180003BF9DFF8E014E4B221F81400DFF8D404FE
:10019000E4B230F81400B0F5004F0DDBDFF8C40412
:1001A000E4B230F8140047F6FF71401ADFF8B414D7
:1001B000E4B221F814000CE0DFF8A804E4B230F84F
:1001C000140000F5FE40FF30DFF89814E4B221F887
:1001D0001400641CD0E74FF48051DFF8780400F07D
:1001E00003FB00F0F4F84FF40051DFF86C0400F06A
:1001F000EEFA0028F7D1B0E780B50121DFF86804F6
:1002000000F05BFB012804D10121DFF85C0400F061
:100210006DFBDFF85804DFF84414098830F811103A
:10022000182000F077F8DFF84404DFF83414098868
:1002300030F81110192000F06DF81021DFF81404C7
:1002400000F0D5FA012000F01CFA1021DFF80404B8
:1002500000F0CAFADFF804040088401CDFF8FC1341
:100260000880DFF8FC030088401CDFF8F4130880E6
:10027000DFF8E8030088B0F59D7F03DD0020DFF89C
:10028000DC130880DFF8D8030088B0F59D7F03DD1C
:100290000020DFF8CC13088001BD00B585B0012136
:1002A000022000F015FC0121DFF8BC0300F01EFB6A
:1002B0000A20ADF8080040F6B830ADF80400002080
:1002C000ADF80A000020ADF8060001A9DFF8980398
:1002D00000F090FA01220121DFF88C0300F0E2FA2D
:1002E0000121DFF8840300F0CFFA4FF4C06000F082
:1002F0003DFC1D208DF8000000208DF8010001203C
:100300008DF8020001208DF8030000A800F033FCF6
:1003100005B000BD70B504000D004FF40071CD486C
:1003200000F062FA012000F0ACF94FF40071C94806
:1003300000F05DFA4021C74800F059FA0026F6B2F5
:10034000082E1FDAE4B2200604D52021C14800F0AF
:100350004BFA03E02021BF4800F049FA012000F0E9
:1003600090F94021BB4800F03FFA012000F089F9E4
:1003700064004021B74800F03AFA012000F081F90A
:10038000761CDCE70026F6B2102E1FDAADB2280488
:1003900004D52021AF4800F027FA03E02021AD4822
:1003A00000F025FA012000F06CF94021A94800F086
:1003B0001BFA012000F065F96D004021A54800F00E
:1003C00016FA012000F05DF9761CDCE770BD80B5FF
:1003D0001021A14800F00BFA02219F4800F007FA13
:1003E0000F2000F04EF910219B4800F0FDF902218A
:1003F000994800F0F9F901BD38B500240025EDB2A7
:10040000102D14DA4FF48061924800F0F0F9640086
:100410008021974800F0DBF9002801D054F0010456
:100420004FF480618B4800F0DFF96D1CE7E7200096
:1004300080B232BD80B54FF40061864800F0D4F937
:10044000FF2000F01EF94FF40061824800F0CFF960
:1004500001BD10B50400E4B2002C09D0022C21D05B
:1004600013D3042C38D02AD3062C4FD041D359E0D3
:100470000421784800F0BBF90821764800F0B7F96C
:1004800001217B4800F0B3F94CE00421714800F0F1
:10049000ABF908216F4800F0AAF90121744800F077
:1004A000A6F93FE004216B4800F0A1F90821694852
:1004B00000F09AF901216E4800F099F932E0042128
:1004C000644800F091F90821624800F08DF901219B
:1004D000674800F08CF925E004215E4800F087F9B8
:1004E00008215C4800F083F90121614800F07CF9A3
:1004F00018E00421574800F077F90821554800F02A
:1005000076F901215A4800F06FF90BE004215148B7
:1005100000F06DF908214F4800F066F901215448B8
:1005200000F062F910BD10B500F0F8F95FF480300A
:1005300000F024FA00F04DFA0400E4B2012C24D1BA
:10054000102000F06FFB022000F060FB002000F0A4
:1005500082FA002000F093FA4FF4806000F085FAF0
:100560005FF4E0115FF4803000F053FA012000F0F6
:100570005EFA392000F0BBFA0028FAD0022000F021
:100580005BFA00F063FA0828FBD10121022000F099
:1005900081FA01211D2000F08CFA01215FF000504A
:1005A00000F096FA0121022000F092FA10BD80B509
:1005B0004FF47870ADF8000003208DF80200102091
:1005C0008DF8030000A9234800F066F841F60C40BE
:1005D000ADF8000003208DF8020010208DF8030014
:1005E00000A91C4800F058F80120ADF800000320D5
:1005F0008DF8020010208DF8030000A91C4800F0BF
:100600004BF81220ADF8000003208DF802001020F6
:100610008DF8030000A9104800F03EF84FF4604048
:10062000ADF8000003208DF8020004208DF80300CF
:1006300000A9094800F030F88020ADF80000032040
:100640008DF8020004208DF8030000A9084800F08E
:1006500023F801BD0010014000080140880200207D
:100660008A020020780200200004004000000020E0
:10067000000C014080B500215FF0006000F0B1FA8D
:1006800001BD01B40098002803D00098401E0090DE
:10069000F8E701B070470000F0B500270022002302
:1006A00000240025002691F803C01CF00F0C6746BB
:1006B00091F803C05FEACC6C03D591F802C05CEA04
:1006C000070791F800C05FEA0C6C3AD0D0F800C080
:1006D00065465FF0000C6346082B31D25FF0010CD9
:1006E0001CFA03FC6446B1F800C014EA0C0C624624
:1006F000A24223D15FEA830C64465FF00F0C1CFA20
:1007000004FC6646B54317FA04FC5CEA050591F85B
:1007100003C0BCF1280F06D15FF0010C1CFA03FCEA
:10072000C0F814C00AE091F803C0BCF1480F05D12D
:100730005FF0010C1CFA03FCC0F810C05B1CCBE797
:100740000560B1F800C0BCF1FF0F3FDDD0F804C078
:1007500065465FF0000C6346082B36D25FF0010C53
:1007600013F1080E1CFA0EFC6446B1F800C014EA3E
:100770000C0C6246A24226D15FEA830C64465FF00D
:100780000F0C1CFA04FC6646B54317FA04FC5CEA3D
:10079000050591F803C0BCF1280F07D15FF0010CEB
:1007A00013F1080E1CFA0EFCC0F814C091F803C037
:1007B000BCF1480F07D15FF0010C13F1080E1CFAD1
:1007C0000EFCC0F810C05B1CC6E74560F0BD02001F
:1007D0000020936889B20B4202D00123180001E087
:1007E00000231800C0B2704789B20161704789B216
:1007F00041617047002203881A00DFF8F830984200
:1008000012D0DFF8083198420ED0B0F1804F0BD0F3
:10081000DFF8E430984207D0DFF8E030984203D0A8
:10082000DFF8DC30984204D14FF68F731A404B88C2
:100830001A43DFF8D030984208D0DFF8CC30984225
:1008400004D04FF6FF431A40CB881A4302808B88AE
:1008500083850B880385DFF89C3098420FD0DFF842
:10086000AC3098420BD0DFF8A830984207D0DFF8C0
:10087000A430984203D0DFF8A030984201D10B7A1F
:100880000386012383827047C9B2002904D00288FD
:1008900052F00102028004E002884FF6FE731A4013
:1008A00002807047D2B2002A03D083890B43838130
:1008B00002E083898B438381704730B402000020BB
:1008C00000230024158A0D402B0095890D402C0033
:1008D0009BB2002B05D0A4B2002C02D00125280029
:1008E00001E000252800C0B230BC704789B2CA437D
:1008F00002827047002C01400004004000080040C4
:10090000000C004000100040001400400034014082
:10091000004001400044014000480140DFF820024F
:10092000006850F00100DFF818120860DFF81402C8
:100930000068DFF814120840DFF808120860DFF8DA
:1009400000020068DFF804120840DFF8F4110860C4
:10095000DFF8EC01006830F48020DFF8E411086073
:10096000DFF8E001006830F4FE00DFF8D81108601D
:100970005FF41F00DFF8D81108607047DFF8C0117E
:10098000096831F48031DFF8B8211160DFF8B01167
:10099000096831F48021DFF8A82111600100B1F568
:1009A000803F03D0B1F5802F09D011E0DFF890111E
:1009B000096851F48031DFF88821116008E0DFF820
:1009C0008011096851F4A021DFF874211160FFE75C
:1009D000704738B50020009000240025312000F039
:1009E00086F805000098401C00900098B0F5A06FB4
:1009F00002D0EDB2002DF1D0312000F078F80028BF
:100A000002D00120040001E0002004002000C0B258
:100A100032BD0022DFF82C311B681A0032F47C1240
:100A200051EA00031A43DFF81C311A607047C0B264
:100A3000DFF82011086070470021424A1268110057
:100A40008908890001433F4A116070473D480068AA
:100A500010F00C00704700213A4A1268110031F082
:100A6000F0010143374A116070470021354A12688E
:100A7000110031F4E0610143324A116070470021F6
:100A8000304A1268110031F4605151EAC0012D4A18
:100A900011607047C9B2002905D0304A126802437C
:100AA0002E4B1A6004E02D4A126882432B4B1A60C9
:100AB0007047C9B2002905D0294A12680243284B61
:100AC0001A6004E0264A12688243254B1A60704778
:100AD000C9B2002905D0234A12680243214B1A608B
:100AE00004E0204A126882431E4B1A60704710B41B
:100AF0000100002200230020C9B24C09E4B2220008
:100B0000012A03D10E4C2468230008E0022A03D1F5
:100B1000114C2468230002E0134C24682300C9B25E
:100B200011F01F0422001C00D440E40702D5012468
:100B3000200001E000242000C0B210BC704700007B
:100B400000100240041002400000FFF8FFFFF6FE14
:100B5000081002406000424220100240141002407F
:100B6000181002401C10024024100240204901438A
:100B7000204A1160704770B4002400220F23C1780E
:100B8000002922D01B49096811F4E061D1F5E06128
:100B9000090A0C00D4F104010A0019000B00E3401B
:100BA000417891400C00817819400C43240112498E
:100BB00005786C540121057815F01F05A9400F4DEB
:100BC0000678761145F8261009E00121057815F020
:100BD0001F05A9400A4D0678761145F8261070BC0D
:100BE0007047084A0A400243074B1A6070470000EA
:100BF0000000FA050CED00E000E400E000E100E098
:100C000080E100E080FFFF1F08ED00E00021DFF839
:100C100034201268110011F038010143DFF824205C
:100C200011607047DFF81C10096831F01001DFF81F
:100C300014201160DFF80C1009680143DFF804206C
:100C4000116070470020024080B54F48006850F0A6
:100C500001004D4908604D4800684D4908404B4926
:100C60000860494800684B490840474908604648C1
:100C7000006830F48020444908604448006830F43B
:100C8000FE00424908605FF41F004349086000F01D
:100C900005F85FF000604149086001BD80B500F0D3
:100CA00001F801BD82B0002001900020009036487C
:100CB000006850F48030344908603348006810F40C
:100CC000003000900198401C01900098002803D14A
:100CD0000198B0F5A06FF0D12B480068800302D5D1
:100CE0000120009001E0002000900098012847D1E9
:100CF0002B48006850F01000294908602848006817
:100D000080088000264908602548006850F00200ED
:100D1000234908601D4800681C4908601B4800689A
:100D20001A4908601948006850F480601749086043
:100D30001648006830F47C101449086013480068B5
:100D400050F4E810114908600F48006850F08070B6
:100D50000D4908600C4800688001FBD50B4800680D
:100D600080088000094908600848006850F00200C7
:100D7000064908600548006810F00C000828F9D101
:100D800002B0704700000000001002400410024052
:100D90000000FFF8FFFFF6FE0810024008ED00E03B
:100DA0000020024010B450F8041B79B10268436877
:100DB00012180830DC0744BFA9F10104E31852F807
:100DC000044B43F8044B091FF9D1ECE710BC704702
:100DD00010B5074979441831064C7C44163404E0B8
:100DE0000A68081D511888470146A142F8D110BD74
:100DF0000800000018000000ADFFFFFF8C0200009B
:100E000050010000000000200000000000F00BF87E
:100E1000002801D0FFF7DCFF0020C046C046FFF7E6
:100E200065F900F002F80120704700F001B80000F9
:100E30000746384600F002F8FBE7000080B5C046E0
:100E4000C046024A11001820ABBEFBE72600020094
:100E50007047FEE7FEE7FEE7FEE770477047704722
:100E6000704700000148804701480047490C0008CE
:100E7000750E0008C046C046C046C046FFF7C6FF14
:100E8000FFF7E6BFFFF7E5BFFFF7E4BFFFF7E3BFFC
:100E9000FFF7E2BFFFF7E1BFFFF7E0BFFFF7DFBFFC
:100EA000FFF7DEBFFFF7FEBFFFF7FEBFFFF7FEBF96
:100EB000FFF7FEBFFFF7FEBFFFF7FEBFFFF7FEBF66
:100EC000FFF7FEBFFFF7FEBFFFF7FEBFFFF7FEBF56
:100ED000FFF7FEBFFFF7FEBFFFF7FEBFFFF7FEBF46
:100EE000FFF7FEBFFFF7FEBFFFF7FEBFFFF7FEBF36
:100EF000FFF7FEBFFFF7FEBFFFF7FEBFFFF7FEBF26
:100F0000FFF7FEBFFFF7FEBFFFF7FEBFFFF7FEBF15
:100F1000FFF7FEBFFFF7FEBFFFF76EB9FFF7FEBF9B
:100F2000FFF7FEBFFFF7FEBFFFF7FEBFFFF7FEBFF5
:100F3000FFF7FEBFFFF7FEBFFFF7FEBFFFF7FEBFE5
:100F4000FFF7FEBFFFF7FEBFFFF7FEBFFFF7FEBFD5
:100F50004D829B84E8863489808BCA8D13905A9287
:100F60009F94E2962399629B9D9DD69F0BA23CA4E1
:100F70006AA694A8BAAADCACF9AE11B124B332B512
:100F80003AB73DB93ABB31BD21BF0BC1EFC2CCC4AA
:100F9000A1C66FC836CAF6CBADCD5DCF04D1A3D202
:100FA0003AD4C8D54DD7CAD83DDAA7DB07DD5EDE17
:100FB000ACDFEFE029E259E37EE499E5AAE6B1E788
:100FC000ACE89DE983EA5EEB2FECF4ECAEED5DEE70
:100FD00000EF98EF25F0A6F01CF186F1E4F137F26E
:100FE0007EF2B9F2E9F20DF325F331F331F326F392
:100FF0000FF3ECF2BDF283F23DF2EBF18EF124F14E
:10100000B0F02FF0A4EF0DEF6AEEBCED03ED3FEC76
:101010006FEB95EAB0E9C0E8C5E7C0E6B0E595E456
:1010200071E342E209E1C6DF79DE23DDC3DB5ADA90
:10103000E7D86CD7E7D55AD4C4D225D17FCFD0CD4D
:1010400019CC5ACA94C8C6C6F1C415C332C149BF27
:1010500059BD62BB66B964B75CB54EB33BB124AF52
:1010600007ADE6AAC0A897A669A438A203A0CA9DA6
:101070008F9B51991197CE9488924190F98DAE8BA8
:1010800063891787CA847C822E80E17D937B4679B1
:10109000FA76AE7464721B70D36D8E6B4B69096700
:1010A000CB648F625760215EEF5BC15996577055D4
:1010B0004E533151194F054DF74AEE48EB46ED447A
:1010C000F64205411A3F363D593B8339B437ED3579
:1010D0002D347532C4301C2F7D2DE52B562AD02897
:1010E0005327DF2575241323BC216D20291FEE1DF6
:1010F000BE1C981B7C1A6A196318661775168E1524
:10110000B214E1131A136012B0110C117310E50F31
:10111000630FEC0E810E220ECE0D860D4A0D1A0DB8
:10112000F50CDC0CCF0CCD0CD80CEE0C100D3D0DDD
:10113000770DBC0D0D0E6A0ED20E460FC50F501066
:10114000E61088113512ED12B0137F1458153D16B4
:101150002C1726182A19391A531B771CA51DDD1EBA
:101160001F206B21C0221F248825FA267528F82904
:10117000852B1A2DB82E5E300D32C333813547379B
:101180001439E83AC43CA63E8F407F42754470460D
:1011900072487A4A874C994EB050CD52ED5413574D
:1011A0003C59695B9B5DCF5F076242648066C068A3
:1011B000036B486D8F6FD87122746D76B978067B9A
:1011C000547DA27FA27F000000000000000000000C
:0C11D00000000000000000000000000013
:0400000508000E756C
:00000001FF
